:020000021000EC
:108000000040002051C8010099C801009BC8010030
:108010000000000000000000000000000000000060
:108020000000000000000000000000009DC80100EA
:1080300000000000000000009FC80100A1C801006E
:10804000A3C80100A3C80100498F0100A3C8010013
:10805000A3C8010000000000998B0100A3C8010023
:10806000A3C80100A3C80100A3C80100A3C8010060
:10807000A3C80100A3C80100A3C80100A3C8010050
:10808000A3C8010009830100A3C80100A3C801001F
:10809000E9830100A3C801001DC80100A3C80100B5
:1080A000A3C80100A3C801000000000000000000F8
:1080B00000000000000000000000000000000000C0
:1080C000054B0648033310B51B1A062B03D9044B86
:1080D000002B00D0984710BD702000207020002099
:1080E000000000000648074910B5091A8910CB0F97
:1080F0005918491003D0044B002B00D0984710BDED
:1081000070200020702000200000000010B5074CF7
:108110002378002B09D1FFF7D3FF054B002B02D0AA
:10812000044800E000BF0123237010BD7020002030
:10813000000000005CCD0100094B10B5002B03D0FE
:108140000849094800E000BF08480368002B02D135
:10815000FFF7C8FF10BD064B002BF9D09847F7E793
:1081600000000000742000205CCD01007020002081
:1081700000000000164B002B00D1144B9D464022FE
:1081800092029A1A924600218B460F461348144ACF
:10819000121A00F067F80F4B002B00D098470E4BD7
:1081A000002B00D098470020002104000D000D484E
:1081B000002802D00C4800E000BF00F02DF820009D
:1081C000290002F089FA00F011F8C046000008000A
:1081D000004000200000000000000000702000208F
:1081E000082700200000000000000000084B10B528
:1081F0000400002B02D0002100E000BF054B1868EE
:10820000836A002B00D09847200000F033F8C04666
:1082100000000000ECCB01000E4B70B500251E00E5
:108220000D4CE41AA410A54204D0AB00F3589847B3
:108230000135F8E704F0CCFC084B00251E00084C83
:10824000E41AA410A54204D0AB00F35898470135B6
:10825000F8E770BD6820002068200020682000201A
:108260006C20002003008218934202D01970013361
:10827000FAE77047FEE7C046BFF34F8F024A034B51
:10828000DA60BFF34F8FFEE70400FA0500ED00E06F
:1082900080218023184A8902D1508022D221174B95
:1082A000520289005A5040395A5001222F205A60F8
:1082B0000138C046C046C046C046C046C046C0465B
:1082C000C046C046C046C046C046F1D19A600023B1
:1082D0000B4A2F2013600138C046C046C046C04636
:1082E000C046C046C046C046C046C046C046C0465E
:1082F000F1D1044A1370704700E100E00010014022
:108300008C200020AC200020A021F0B5002347469F
:108310002C4A490080B45350043153500431535017
:10832000043153504C39535004315350264B1B6881
:10833000002B37D02549002652582549254F0C6877
:10834000141B00222402240A904602E0002D1AD0B9
:108350002B001A68A24216D8A41AB6181A7CDD6936
:10836000002AF3D0424699691A745A693B68002B77
:108370001BD0100098470028E8D000220021FFF70A
:108380007BFF002DE4D1144B14491A780B789A42E4
:108390000ED0134A9B009E5080218023114A49032E
:1083A0005B00D15004BC9046F0BD08009047CDE77B
:1083B0000132D3B2022B01D00B70EAE700230B701D
:1083C000E7E7C046001001409020002004050000AF
:1083D0008C20002094200020A0200020A12000203C
:1083E000A420002000E100E0F0B55F4656464D466F
:1083F0004446F0B4C24BC34A1B68C3498BB00593D3
:1084000009781378994200D154E10133DBB2022B91
:1084100000D100231370BD4A9B009B58B84A9A466E
:10842000059B53441B021B0A136001230193B84BA5
:1084300000241B689B46B74B5A461B78914619008F
:1084400088460393B44B47461B68013F0493AC4BEB
:108450001B680893B14B1B7807930023099306937D
:108460001E00FBB29846FF2B32D04346D800049B37
:108470009C46130060440178457800961A00A94292
:108480001FD046684A00B446521886780131D2009F
:10849000C9B262448E4200D1EBE01678022E00D1C0
:1084A000C5E0032EEAD1002BE8D01C74DB69002B59
:1084B000FBD1013345780093002399461A00A94265
:1084C000DFD14746013FFBB2009E9846FF2BCCD13F
:1084D0000292002E00D0F1E0069B002B02D0884BC8
:1084E000089A1A60099B002B03D06A468B4B127FB7
:1084F0001A70019B002B00D02AE15B46029A0025EE
:108500009B1A5A1E9341DBB205937D4B00271B68D3
:1085100002999C467E4B1B689B46804B1B780693BA
:10852000002301937E4B994601230093039B013B5B
:10853000DBB20393FF2B00D1F6E0049ADB009246F6
:108540000E009A44002D28D06A68A9682C00ED69B5
:108550006346D31A1B021B0A4B4552D86A4612784F
:108560005B1823606760A7602274E761002E58D013
:1085700031683000994205D3B6E01168994200D3C2
:10858000A0E01000C2695B1A002AF6D1E261320055
:108590002360C4611600002DD6D153461A785B784B
:1085A00031009342C2D05146496853008846514633
:1085B0009B180132D2B20A708978DB0043449142A1
:1085C00000D19AE0197832000129E3D15C68227C5D
:1085D0009046414632000029DCD19A686260D96831
:1085E000A1601869E0605B69A361069B002BAFD0B6
:1085F0004346002263606346D31A1B021B0A4B45A5
:10860000ACD963469A1A1202120A8A4261D28B1AB4
:108610006A46127823606760A7602274E761002EC3
:10862000A6D122000123A34601931600B3E75668A2
:10863000002B30D09E421ED0009A1F00944602E0CC
:10864000964206D01700FA69002AF9D162460092D4
:1086500014E765460095BA420FD01568D269FA61F1
:10866000002A16D013689C466544156045784B4631
:1086700004E7002111E71A001F00DE69002E0CD06C
:10868000012500951568D269B1463300FA61002AC8
:10869000E8D14578F2E60023F0E60125214B9D6004
:1086A00009950795069500250023089501359946FB
:1086B0000095D2E700239A460193B8E64A46144B48
:1086C0001A6009E7C91A1160E26123603200C461CF
:1086D00060E76B461B7827606760A7602374E761DB
:1086E000002E9ED000233168CB1A33602200012374
:1086F000E661A346019316004DE75246157061E707
:108700008C200020A0200020A1200020A4200020F8
:1087100090200020982000209C200020A2200020F3
:10872000FEFF7F0000100140019B002B00D09DE068
:10873000029B994236D1059B002B33D10023534A2B
:1087400013700BB03CBC90469946A246AB46F0BDB8
:108750004F4B002418680025029B00210026574635
:1087600015E01A68BA4200D984E0D868BF1A89189F
:108770001E60DC69002807D0DD611D00059A986045
:1087800052181202120A5A6023002000019C002B8A
:10879000E7D1002C01D03E4B186000230293013337
:1087A0000593B2E6002900D15DE00B683948984690
:1087B000394B3A4DC4583A4B2E781B68E11A0902DE
:1087C000090A0331002E2DD042468A4200D20A0007
:1087D000A820D21812022F49130AC0002E4D0B50A8
:1087E0004A591B1B121B1202120A1B0203321B0ADC
:1087F0009A42A3D94B590B502F200138C046C0468E
:10880000C046C046C046C046C046C046C046C04638
:10881000C046C046F1D180218023224A89025B00F4
:10882000D1508BE78026D1277602BF00C651403F4A
:10883000C651C02280271B4EBF025200B75037607E
:10884000012606602F200138C046C046C046C046FB
:10885000C046C046C046C046C046C046C046C046E8
:10886000F1D12E70B0E7FFF713FD67E75A46084BCA
:108870001A605DE7BA46002C01D0054908605146F0
:10888000521A1A600293012305933EE6A2200020AB
:10889000902000200010014004050000AC200020C2
:1088A0008C20002000E100E0F8B54F464646C0B4F9
:1088B0000326350080460F00140099461540072016
:1088C000002D03D00CBC90469946F8BD002A44D038
:1088D000FFF7DEFC4A46224B80201A602200214B23
:1088E00018321E70204B62601C607B00DB19DB00BD
:1088F000D218E260D318C022636125706570A7703A
:1089000025726572A77225746574A774C524FF214A
:10891000164B40031D60164B52001D70154BA400F2
:108920001D70154B98501A598A433F390A431A5102
:10893000A122186040461149D2008850C42080000E
:108940001C580F4A2240C024240222431A500D4BC7
:108950000020CA580C4B1A60B4E7034B1A60B1E709
:1089600094200020982000209C20002090200020AF
:10897000A0200020A120002000E100E00010014024
:10898000FF00FFFF040500008C20002010B50B4BFA
:108990001B68002B0BD0002A07D0002805D00368E5
:1089A00008201C7C002C04D010BD0720FCE7082008
:1089B000FAE759745A610020F6E7C0469C2000206F
:1089C000F0B5474680B43A4B1C68002C08D000280C
:1089D00006D00723042905D8180004BC9046F0BD32
:1089E0000823F9E74369002BFAD0437C012B48D0D8
:1089F00000239C462F4B10255B68DB05DB0D26D141
:108A0000641963785F1CFEB2A778B7423DD027781F
:108A1000B74238D05D00ED186368ED0098464544D4
:108A20000423002DD8D0033B2B706860224B2348D1
:108A3000C358E960AB60634680212B6180236A6183
:108A40001F4A5B0049036670D1500023C4E7103B06
:108A5000DFB27DB2002D1ADB0326AD08184FC035FA
:108A6000AD00ED593340DF002B00FB409B09334044
:108A7000DBB20025012BC3D00835032BC0D008354D
:108A8000BEE78C46B6E70423A6E70026BFE70F2320
:108A90000C4D3B40A8460325083B9B089B004344E4
:108AA0005B682F40FF00FB409B092B40E0E7C0467E
:108AB0009C20002000ED00E00405000000100140B3
:108AC00000E100E018ED00E010B52F4A0300116846
:108AD000082000292AD0002B28D05A69002A25D046
:108AE00000221A74294A08305268D205D20D1ED1CC
:108AF00009184A788878541CE4B2A04232D0087829
:108B0000A0422DD0500082184868D20084466244AA
:108B10000420002A0AD00238107053604C70802361
:108B2000802100201A4A49035B00D15010BD103A41
:108B3000D4B260B2002817DB8008154CC03080002A
:108B4000005903242240D200D04082092240D2B2F0
:108B50000020012ACCD00830032AC9D00830C7E74A
:108B60000420E3E70024CAE70F220A482240844693
:108B70000320083A92089200624452680440E400DC
:108B8000E24092090240E2E79C20002000ED00E074
:108B900000E100E018ED00E0F0B557464E464546CE
:108BA000E0B4D44A00241368012B00D1C1E0D24BB9
:108BB0001A68012A00D1CAE0D04B1A68012A00D1F4
:108BC000D5E0CF4B1A68012A00D1E0E0CD4B00255B
:108BD0001A68012A00D1EBE023070BD0E30700D588
:108BE000FCE0A30700D508E1630700D513E12307E4
:108BF00000D5E7E0002C04DB1CBC90469946A24659
:108C0000F0BD4023C04CE15C4BB201331ED0C9B271
:108C1000C02308009843231820331B785BB29B00C5
:108C20001E59002E12D0A0230127DB059C46E0230D
:108C3000874082006244DB00D35889099B039B0F65
:108C40003D4200D10FE1022B00D173E14123E15CF1
:108C50004BB201331ED0C9B2C02308009843231879
:108C600020331B785BB29B001E59002E12D0A0232C
:108C70000127DB059C46E023874082006244DB003D
:108C8000D35889099B039B0F3D4200D1D3E0022BAF
:108C900000D143E14223E15C4BB201331ED0C9B2A3
:108CA000C02308009843231820331B785BB29B0035
:108CB0001E59002E12D0A0230127DB059C46E0237D
:108CC000874082006244DB00D35889099B039B0FD5
:108CD0003D4200D1F6E0022B00D125E14323E15CC7
:108CE0004BB2013300D187E7C9B2C02308009843D3
:108CF000231820331B785BB29B001E59002E00D135
:108D00007AE7A0230124DB059C46E023844082000F
:108D10006244DB00D35889099B039B0F254200D195
:108D2000BDE0022B00D067E7032900D108E1B0477E
:108D300062E7C1217548890041580B4200D136E7EE
:108D40006D4B14601A680134012A00D034E7C12247
:108D50006E499200895802220A4200D12CE7002174
:108D60001960664B14431A68012A00D029E7C12212
:108D700066499200895804220A4200D121E7002165
:108D800019605F4B14431A68012A00D01EE7C12204
:108D90005E499200895808220A4200D116E7002154
:108DA0001960584B14431A680025012A00D013E7B4
:108DB0001D6080231B061C43A022A223D205DB00DA
:108DC000D55809E7514A524BD058D1584E4B8903D8
:108DD000C004890FC00EDB6898470BE7A2234B4AFB
:108DE000DB00D058D158484B8903C0041B68890F59
:108DF000C00E9847A30700D4F6E6464B434AD05826
:108E0000D158414B8903C0045B68890FC00E984755
:108E1000630700D4EBE6A3233C4ADB00D058D158CB
:108E2000394B8903C0049B68890FC00E98472307FC
:108E300000D4DFE6C6E7032B00D02BE7032910D1CF
:108E400080239B029C46E023DB009946324FD35897
:108E50001F404B46D750D75863463B431F004B46F5
:108E6000D750B04716E7032B00D0EFE6032914D103
:108E700080239B029A46E023DB00D7589946B846E8
:108E8000254FBC46474663461F403B004F46D351E3
:108E9000D35957461F434B46D750B047D6E6032B0E
:108EA00000D0A9E6032900D041E78027BF02E023D4
:108EB000DB00D458184D2540D550D4583C43D450ED
:108EC000B04799E6032B00D008E7032910D180238F
:108ED0009B029C46E023DB0099460F4FD3581F406E
:108EE0004B46D750D75863463B431F004B46D7509D
:108EF000B047F3E6006100400461004008610040B3
:108F00000C6100407C610040B02000200060004007
:108F10001C05000014050000FFFFFCFF0329A0D181
:108F2000C0239B029C468EE70329E1D1C0239B020C
:108F30009C46CFE70329B0D1C0239B029A469AE70B
:108F4000C027BF02B3E7C046C12210B5514B920003
:108F50009A5884B092054CD54F4A1168002948D0E0
:108F6000002111608121C2228900920099504B4B4F
:108F70005A7D002A02D10121494A11600222694624
:108F80000A7090214348C9004258425069460392F2
:108F9000DA7C68460A72DA68196801920022DA748B
:108FA0005B6898473F4A1368002B10D03B4B188AE8
:108FB000997C814251D9002111601A8A9968895C93
:108FC0001A8A013292B21A82374B324AD150374B49
:108FD0001A68002A0BD000221A60304B5A7D002AF2
:108FE00002D001212B4A1160DA7C002A44D104B05E
:108FF00010BDC123274A9B00D3585B07D2D52C4B09
:1090000019680029CED00021A3241960234BE40065
:10901000187DD96812590A541A7DD87C0132D2B20F
:109020001A751A7D9042BDD15A7D002A02D10120C5
:109030001B4A10608124C2221648A400920084506A
:109040006C461A7D01202272002220700191DA7490
:10905000196868465B689847A4E7002010600029FB
:10906000B5D06A46107011729A68987419680192A6
:109070005B6868469847AAE768461A7D0121027234
:10908000DA680170019200221968DA745B68984707
:10909000ADE7C0460020004024210040F820002019
:1090A000042000401C2100401C0500004421004019
:1090B0000821004029DF704728DF7047F0B5564689
:1090C00044465F464D46F0B4534E85B03478012C8B
:1090D00066D0002C4CD0022C15D0032C0CD14F4B59
:1090E0001868FFF7E9FF002806D0112860D108238F
:1090F0004B4A11680B43136005B03CBC904699463F
:10910000A246AB46F0BD464B9A461B680393454BBF
:1091100099461B789D00ED188023AD005B05196909
:109120004D442F690904090C38009B4603F0BAFB33
:109130003A4B804618605B461969E888013F09048C
:10914000C019090C03F0AEFB80452CD00323039C0F
:109150009C4353461C60344B1B68002B02D10233E6
:10916000234241D00022314B1A7000F0F3FAC3E7DA
:109170002F4B1C602F4B1C602A4B5A78002ABBD007
:109180001A7891008A1892009B18D9882A4A1B796C
:109190001160032B25D0042B23D0012BACD13370CD
:1091A00000F07AFCA8E70123039A9A431443D0E71E
:1091B0001C4D2B789C00E3189C002A19140053695D
:1091C0001179D2680C345500AA181B4D92002D68F5
:1091D00000951A4D555902002000A847042333700A
:1091E0008AE700F02DF887E7104A40461370FFF732
:1091F00063FF002800D17FE7112804D108231C4316
:1092000053461C6078E74B461B789C00E4184B469D
:10921000A4001A19D2E7C046EA210020DC21002070
:10922000F821002010210020EC210020EB2100205B
:10923000FC210020E4210020F42100200022002055
:10924000F0B55F4656464D464446F0B45B4B5C482D
:109250001A78802691008A1892009B18DF681D6991
:109260007A00D2199200821814895089526860439A
:1092700080469044DA881B8914009946514B9246E7
:109280009B4600235A467605316983B009044C4455
:109290001360090C2800641903F08AFB00295CD1D3
:1092A00033699BB29A4542D0A04500D174E0032FA8
:1092B0003DD02800316948440904090C03F078FBCB
:1092C000414B8908196031690904090C200003F039
:1092D0006FFB002925D080256D0529692B696A4619
:1092E00099464346D380D08889B203F0DBFA6A46B8
:1092F0004B46A6B2D3800700D188300003F0D2FAE3
:10930000BFB280B287423DD02C692969300089B252
:1093100003F04EFB5B462404240C89B2641AA408B3
:109320001C600222294B1A70FFF7C8FE0EE0802352
:109330005B05196928000904090C03F0B3FA03223C
:10934000234B1860214B1A70FFF7B8FE03B03CBCEA
:1093500090469946A246AB46F0BD032FE7D02800C1
:10936000316948440904090C03F022FB164B8908B3
:1093700019603169A045A7D10222144B1A70FFF77A
:109380009DFEE3E7434624041B041B0C240C1C1B1A
:109390005B46A4081C60C4E74B46002BC7D0032FD4
:1093A000C5D02800316948440904090C03F000FBCA
:1093B000054B890819603369B3E7C04610210020C6
:1093C00000220020E0210020EC210020EA210020E2
:1093D000DC210020082170B50C00244A82B01368FB
:1093E0001C4009D08B431360214B224A1B789B0001
:1093F0009B58984702B070BD1F4D2B789800C3183A
:1094000098002A18117904292AD010005369D268CB
:109410000C305600B218194E920036680096184E5D
:1094200096590022B04702212A7893009B189B008E
:10943000EB181C71DC80D9601C615C611C816B784D
:109440000132013BD2B26B700A2A06D02A70002288
:109450000C4B1A70FFF732FECCE700232B70F6E7B7
:109460000122084B1A70FFF729FEC3E7F8210020FC
:10947000EB21002004CC010010210020F421002069
:1094800000220020EA210020802230B55205234B23
:1094900014691B682404013B240C5C43204B83B0FB
:1094A0005869431C37D011690904090C03F0FAF913
:1094B00080235B0519691B4B09040138090C4143E2
:1094C0001A682000FFF7F6FD002806D0112806D103
:1094D0000823154A11680B43136003B030BD134DC8
:1094E0002B789C00E3189C002A1914005369117909
:1094F000D2680C345500AA180D4D92002D680095C5
:109500000C4D555902002000A84704220A4B1A703E
:10951000FFF7D4FDE1E75069CAE7C046DC2100202F
:1095200000100010EC210020F82100201021002064
:10953000F421002000220020EA21002030B5244B35
:1095400083B05869431C3FD080235B051969090427
:10955000090C03F0A7F98022520513691D4C11690B
:109560001269090424681B0492B2090C01381B0C0F
:10957000920861435843FFF79DFD002806D011284B
:1095800006D10823144A11680B43136003B030BDA1
:10959000124D2B789C00E3189C002A191400536983
:1095A0001179D2680C345500AA180D4D92002D681F
:1095B00000950C4D555902002000A84704220A4B83
:1095C0001A70FFF77BFDE1E780235B055869C2E76E
:1095D00000100010DC210020F821002010210020C4
:1095E000F421002000220020EA210020F0B580278D
:1095F000284C7F05237839699A00D3189B00E3181B
:109600001A89DD881B69AD18ED18090483B0090CAF
:10961000280003F0CDF9204B0E005869431C37D0C9
:1096200039690904090C03F03DF980235B051B69C6
:10963000411E1B041B0C5943184A89191268280043
:10964000FFF738FD002806D0112806D10823144A58
:1096500011680B43136003B0F0BD2578AB005D19B2
:10966000AD006219140053691179D2680C345500A9
:10967000AA180C4D92002D6800950B4D555902000B
:109680002000A8470422094B1A70FFF717FDE2E7F4
:109690007869CAE71021002000100010E0210020A6
:1096A000F8210020F421002000220020EA210020DF
:1096B000082330B51F4D83B02C68234214D1A30773
:1096C00002D501231C432C6002221B4B1A701B4B3A
:1096D0001868FFF7F1FC002804D011280DD10823E9
:1096E0001C432C6003B030BD9C43134B144A1B78C1
:1096F0002C609B009B589847F4E7124D2B789C00F8
:10970000E3189C002A19140053691179D2680C34AB
:109710005500AA180C4D92002D6800950B4D555917
:1097200002002000A8470422094B1A70FFF7C6FC6C
:10973000D8E7C046F8210020EB210020DC210020E2
:1097400004CC010010210020F42100200022002080
:10975000EA21002030B5224B83B05869431C3BD02E
:1097600080235B0519690904090C03F09BF880222A
:109770005205136911691B041B0C01380904584375
:10978000090C03F08FF8FFF797FC002806D011288A
:1097900006D10823134A11680B43136003B030BD90
:1097A000114D2B789C00E3189C002A191400536972
:1097B0001179D2680C345500AA180C4D92002D680E
:1097C00000950B4D555902002000A8470422094B73
:1097D0001A70FFF773FCE1E780235B055869C6E761
:1097E00000100010F821002010210020F42100209A
:1097F00000220020EA210020082370B52B4D82B002
:109800002C68234209D09C43294B2A4A1B782C60A0
:109810009B009B58984702B070BD0122244B1A70E0
:10982000254B5869431C3CD080235B05196909040A
:10983000090C03F037F88022520513691F4E116995
:109840001269090436681B0492B2090C01381B0C1A
:10985000920871435843FFF72DFC0028DBD01128F4
:1098600003D108231C432C60D5E7154D2B789C00B1
:10987000E3189C002A19140053691179D2680C343A
:109880005500AA180F4D92002D6800950E4D5559A0
:1098900002002000A84704220C4B1A70FFF70EFCB0
:1098A000B9E780235B055869C5E7C046F821002069
:1098B000EB21002004CC010000100010DC2100206E
:1098C00010210020F421002000220020EA210020A5
:1098D000F0B54D4644465F465646F0B4644B85B0FD
:1098E0001D68984608231A002A40914600D076E069
:1098F000604F3C78A30003931B199B00FB181A6967
:10990000561EDA881B89B618F61880235B0519697C
:10991000594B1B689A46002B44D1584B1B689B46F9
:1099200080235B05196930000904090C02F0BAFFB5
:10993000834566D353465CD0002B5CD1039B9C4689
:109940006444A4003A19117904296CD010005369B9
:10995000D2680C305400A218494C9200246800943C
:10996000484C14590022A04751463A7893009B185E
:109970009B00FB1819715146D9800221D9605146CC
:1099800019615961514619817B780132013BD2B28C
:109990007B700A2A4DD03A7000223B4B1A70FFF7B9
:1099A0008DFB15E0354B09041B68090C30009B4604
:1099B00002F078FF5845B3D14A46344B1A60012370
:1099C0001D4343464A461D60314B1A70FFF7C2FEE5
:1099D00005B03CBC90469946A246AB46F0BD9D43BF
:1099E00043461D602A4B2B4A1B789B009B58984787
:1099F000EEE7002B05D00322254B1A70FFF7F6FD8A
:109A0000E6E70022214B58461A60214B02321A70B9
:109A1000FFF752FB0028DBD011280DD108231D438E
:109A200043461D60D4E70122174B1A70FFF746FB2F
:109A3000CEE700233B70AFE73B789A00D218920044
:109A4000BC182700E268636921795400A2180C4C05
:109A50000C372468920000940A4C14590200380014
:109A6000A0470422084B1A70FFF728FBB0E7C04656
:109A7000F821002010210020E0210020DC2100201E
:109A8000F421002000220020EA210020EC21002007
:109A9000EB21002004CC0100F0B54F464646C0B48F
:109AA0008027444E7F0534783969A5002B199B0027
:109AB000F318DA8889B283B08A421AD818895969AA
:109AC0001B699208C018FFF7F5FA002806D0112884
:109AD0002FD10823384A11680B4313602C19A400B6
:109AE0003419E288354B1A6003B00CBC9046994695
:109AF000F0BD3D6959692D042D0C551B18893A6933
:109B00001B6992B2C018920849194019FFF7D2FA9E
:109B1000002806D011282BD10823274A11680B43AF
:109B2000136080235B051B69244A1B041B0C136014
:109B3000DAE73778BB00DF19BF00F21953691179F2
:109B40001700D268994653009C461D4B62441B681F
:109B5000920000931B4B0C37D358020098463800F4
:109B60004B46C0470422184B1A70FFF7A7FAB5E717
:109B70003478A3001C19A400321914005369117918
:109B8000D2680C345500AA180D4D92002D6800952E
:109B90000C4D555902002000A84704220A4B1A70A8
:109BA000FFF78CFA80235B051B69044A1B041B0C1E
:109BB000136099E710210020F8210020E421002003
:109BC000F421002000220020EA210020F0B54646C2
:109BD0004F460823C0B4704E83B0346823426DD121
:109BE0006E4B1A68571C1F606D4B1D68002D28D1E5
:109BF0006C4B1D7899468023A80045195B051969AF
:109C0000AB0098464D4645442B690904581EEB8825
:109C1000090CC0182B89C01802F044FE874265D396
:109C2000614B60D01F68002F00D17BE001231A0038
:109C3000224050D11C435D4B34601A70FFF78AFDFF
:109C400044E00421594B197080235B051F693F04D0
:109C50003F0C5743564A5069421C42D019690904C7
:109C6000090C02F01FFE80235B0519690138090405
:109C7000090C41432A003800FFF71CFA002825D0C0
:109C800011284BD0474D2B789C00E3189C002A19D3
:109C9000140053691179D2680C345500AA18454D47
:109CA00092002D680095444D555902002000A847A8
:109CB0000422424B1A70FFF701FA07E09C433B4B2A
:109CC0003F4A1B7834609B009B58984703B00CBCFC
:109CD00090469946F0BD0322344B1A70FFF786FC7C
:109CE000F4E75869BFE71B68002B9FD102222F4B76
:109CF00038001A70FFF7E0F90028E7D011280DD0DE
:109D00004B461B789A00D2184B4692009D182A00A9
:109D10000C3214006B692979EA68BEE708231C43FA
:109D20003460D3E7297904292CD042464A440C32C6
:109D30001000EA686B695400A2181E4C9200246857
:109D400000941D4C14590022A0474B4602211A785A
:109D500093009B189B004B44D9601F71DF801F61EB
:109D60005F611F814B4649465B780132013BD2B2AD
:109D70004B700A2A0CD00A700022104B1A70FFF7A1
:109D80009DF9A3E701220D4B1A70FFF797F99DE7A4
:109D900000230B70F0E7C046F8210020DC210020F2
:109DA000EC21002010210020E0210020EB210020E8
:109DB00000100010F421002000220020EA210020E1
:109DC00004CC010030B5154B83B01868FFF774F967
:109DD000002806D0112806D10823114A11680B4328
:109DE000136003B030BD0F4D2B789C00E3189C002E
:109DF0002A19140053691179D2680C345500AA1835
:109E0000094D92002D680095084D5559020020001B
:109E1000A8470422064B1A70E3E7C046DC21002065
:109E2000F821002010210020F42100200022002031
:109E3000EA210020F0B557464E464546E0B4984624
:109E400008AB1B8894469A461C4B04245F781E007E
:109E50000A2F2DD01B78FC18092C00DD0A3C142297
:109E60005443341920716046606120000C309146E3
:109E700024C924C041465246E18022810024104A70
:109E8000013711787770A14212D14D465D437319A5
:109E9000D8880C491B790860032B07D0042B05D008
:109EA000012B05D11370FFF7F7FD01E0FFF7C8F9AB
:109EB00020001CBC90469946A246F0BD102100200F
:109EC000EA210020F4210020F0B546464F46C0B4F8
:109ED000764C0425237883B01A000600AA4312D0DA
:109EE000022815D003280ED1082071490A681042B3
:109EF0005DD0022B54D0032B01D0012B03D1824320
:109F00000A60FFF7DBF803B00CBC90469946F0BD41
:109F1000022B45D0032B59D0012BF4D10821644AE0
:109F20001368194200D095E0624D2B789800C31851
:109F30009800614B2A181F68D388DF1BBFB2D780F7
:109F4000002F00D08BE0536911791000D268994638
:109F500053009C46594B62441B6892000093584B37
:109F60000C30D358002298464B46C0472A789300BD
:109F70009B189B00EB181F71DF80DE601F615F6123
:109F80001F816B780132013BD2B26B702A700A2AB2
:109F900001D100232B7000232370FFF78FF8B2E765
:109FA000484B494A1B789B009B589847ABE7474969
:109FB0000A6801320A60032A54D0022BA1D1414B16
:109FC000434A1B789B009B5898479CE70821384AD6
:109FD000136819423ED13F4B364D1A682E78571CF4
:109FE0001F6080235B051969B30098469B199B008D
:109FF000EB181A690904501EDA881B898018C018EA
:10A00000090C02F04FFC874200D27AE749D046445F
:10A01000B600AA19117904293ED0AE19300053694F
:10A02000D2680C305600B218244E92003668009662
:10A03000234E96590022B047002102202A7893002F
:10A040009B189B00EB181971D980D8601961596170
:10A05000198196E78B431360FFF730F853E7FFF75A
:10A060001BFD50E7134803789A00D3189A0086180E
:10A0700032000C321000F268736931795600B21860
:10A080000E4E9200366800960D4E96590D22B0473E
:10A090002570FFF713F836E701232370FFF70EF85A
:10A0A00031E70D4B1B68002BB1D12AE7EA210020D4
:10A0B000F821002010210020E4210020F4210020BC
:10A0C00000220020EB210020F0CB0100FC21002029
:10A0D00004CC0100DC210020E021002010B500208C
:10A0E0002C2400220221484B1855143418550234F0
:10A0F0001A5302341A531034185502341A530234C6
:10A10000D9601876196259639964D9651A705A70C2
:10A110001A71DA801A615A611A815A835A629A62F4
:10A120009A83DA859A63DA631A86DA641A651A669C
:10A130005A661A531034185502341A5302341A53FB
:10A140001034185502341A530634195104341A5174
:10A1500004341A510C3C1A531034185502341A5353
:10A160000634195104341A5104341A510C3C1A5350
:10A170001034185502341A530634195104341A5144
:10A1800004341A510C3C1A5310341855BA201A5280
:10A19000063019501967C2315A5004315A500C39DF
:10A1A0005A679A675A52194B1A80194B5869431CBF
:10A1B00025D080235B0519690904090C02F072FBA4
:10A1C00080235B051B6903381B041B0C5843114B90
:10A1D000002118600023104A002013600F4A13600A
:10A1E00013815381D3609382D3820D4A11700D4A3B
:10A1F00013600D4A136004220C4B1A6010BD8023BB
:10A200005B055869DCE7C04610210020E8210020EA
:10A2100000100010F0210020DC210020002200208E
:10A22000EA210020FC210020E4210020F821002068
:10A23000F8B54F464646C0B4314B04001B680D00CC
:10A2400008205B0703D40CBC90469946F8BD002C4F
:10A2500052D0002950D02368002B4DD080225205C7
:10A260001369A6889BB201389E42ECD80F2EEAD91A
:10A27000E388002BE7D0734399462249224B0F68AD
:10A2800058698846B944431C38D011690904090C3F
:10A2900002F008FB80225205136901381B041B0CD5
:10A2A000434307209945CED8B307CCD1174B033889
:10A2B0001E889946022EC6D00C23C0C5734314488D
:10A2C0002568C1184F601D50A58801360D81E088B2
:10A2D00048816843136911699BB2C018013889B27B
:10A2E000146902F069FB4346A4B26043C7191F60BA
:10A2F0004B4600201E80A6E70E20A4E75069C9E760
:10A30000F8210020F021002000100010E82100209A
:10A3100000220020F0B5134B1C680823640701D409
:10A320001800F0BD00281BD0002A19D00468013B9A
:10A33000012CF5D865000C4E2D19AD00AF59002F3A
:10A34000EED075192E894068714309186889464313
:10A3500068683618B142E3D2146051600023DFE729
:10A360000E23DDE7F821002000220020F0B547464B
:10A3700080B41F4C0500246882B00820640703D411
:10A3800002B004BC9046F0BD00292FD0002D2DD086
:10A390002C680138012CF3D867003C19154EA40035
:10A3A000A759002FECD06F683419BC4626896789FD
:10A3B000B04677436668BC19A445E1D2002ADFD0D5
:10A3C0009045DDD3D418A045DADB09308C07D7D10E
:10A3D00003242342D4D166462642D1D100930F38BC
:10A3E00013000A002900FFF725FDC9E70E20C7E783
:10A3F000F821002000220020F0B5474680B41F4C11
:10A400000500246882B00820640703D402B004BCAD
:10A410009046F0BD00292FD0002D2DD02C6801389A
:10A42000012CF3D867003C19154EA400A759002F42
:10A43000ECD06F683419BC4626896789B0467743EB
:10A440006668BC19A445E1D2002ADFD09045DDD36F
:10A45000D418A045DADB09308C07D7D10324234276
:10A46000D4D166462642D1D100930C3813000A009D
:10A470002900FFF7DFFCC9E70E20C7E7F82100201D
:10A4800000220020F0B546464F46C0B41600284AC8
:10A490000500126883B00C000820520704D403B0F2
:10A4A0000CBC90469946F0BD00293ED0002D3CD012
:10A4B0000A680138012AF2D81E49894651008A18D3
:10A4C0004946920089580029E9D061684A448C467F
:10A4D0001189884647465189526879438A189445BC
:10A4E000DDD2002EDBD0B045D9D3F2189045D6DBB3
:10A4F0000930AA07D3D103221342D0D161461140BB
:10A500008846CCD1634419003200280002F04FFB8A
:10A510000C232268009653434A462000D658022155
:10A520002B004246B0474046B9E70E20B7E7C04689
:10A53000F821002000220020F0B546464F46C0B466
:10A54000244B83B01B6805000E0008245B0705D46C
:10A55000200003B00CBC90469946F0BD002836D0D0
:10A560000368013C012BF3D85900CB181A4A9B0011
:10A5700099580029ECD0D3181A895F89416857434C
:10A58000586888463F189146B942E1D20B00093419
:10A590009B07DDD1081A110002F00AFA093C0029D4
:10A5A000D6D14946300002F003FA89B20029CFD152
:10A5B000002ECDD04346F3189F42C9D3002233006A
:10A5C000009229000320FFF735FC0400C0E70E24A9
:10A5D000BEE7C046F821002000220020074B1A6881
:10A5E0000823520701D418007047002804D0044BF8
:10A5F0005B7803600023F6E70E23F4E7F8210020E0
:10A600001021002076DF70477ADF70477CDF7047CB
:10A6100060DF70473CDF704748DF704710B50028A7
:10A6200000D010BDFFF7F6FF0028FAD0002200216D
:10A63000FDF722FEF5E7C04610B500220021FDF728
:10A640001BFE10BD10B50400FFF73EFC200000F01B
:10A6500069FF10BD10B5040001F04AFC200001F0B4
:10A660004FF82388102B09D0112B03D10122054B61
:10A6700052421A80200000F0DFFE10BDA288014B7C
:10A680001A80F7E76420002010B5101E03D00022C6
:10A690000021FDF7F1FD002010BDC04610B5037884
:10A6A000002B00D010BD064B3B211888FFF7AAFFF6
:10A6B0000028F7D000220021FDF7DEFDF2E7C046BA
:10A6C0006420002010B50A0001000248FDF7D4FD07
:10A6D00010BDC046EFBEADDE70B500239AB07A4A19
:10A6E00005210020FEF7E0F8002803D00022002119
:10A6F000FDF7C2FD002348227449082002F054F8F7
:10A70000002803D000220021FDF7B6FD0CAC082282
:10A7100000212000FDF7A6FD01232278200013432D
:10A720002370FFF775FF002803D000220021FDF7FA
:10A73000A3FD674802F05EF8002803D00022002144
:10A74000FDF79AFD634802F05FF8002803D000226D
:10A750000021FDF791FD012303AD2B70FFF7BEFC37
:10A76000002803D000220021FDF786FD280001F01B
:10A77000DDFA002803D000220021FDF77DFD352001
:10A78000052200216844FDF76DFD01236279210057
:10A790001A43E1231A400C231A43CD23134063715B
:10A7A0000723A3710933E3714B4B4C480C930123EE
:10A7B000237101F05FFB002803D000220021FDF788
:10A7C0005BFD0F2101222B78454E8B431343102252
:10A7D0000B40134330002B7002F0F2F9310082B2CB
:10A7E0002800FFF713FF002803D000220021FDF707
:10A7F00043FD082200212000FDF734FD5023238073
:10A80000503363800023A3809133FF332000E38023
:10A81000FFF7FAFE002803D000220021FDF72CFDEF
:10A82000382200212000FDF71DFD0223062223709F
:10A83000013BA37023822B4BE27000211E322800C3
:10A840006361FDF70FFD01232B7396235B002B61E2
:10A85000783B6B6100232A0000930021224B2000EB
:10A8600000F02AFD002803D000220021FDF704FD9E
:10A870001C2200212000FDF7F5FCA022920262605C
:10A88000F02200231203A26003220C93E3812374BD
:10A89000164B20006361164B2273A36100F0F4FE97
:10A8A000002803D000220021FDF7E6FC032000F081
:10A8B000A5FD002803D1FFF7AFFE0028FBD0002242
:10A8C0000021FDF7D9FCF6E76422002018220020C1
:10A8D00055A6010045A6010089A6010060220020BE
:10A8E00018CC0100602000201DA601009DA60100DB
:10A8F00039A6010071DF704772DF704779DF70475A
:10A900007DDF704765DF7047F0B55F4656464D46C0
:10A910004446F0B485B09A460EAB80CB06001B8847
:10A9200000919B463B8801930388002B64D0002351
:10A930000E97994602ABDD1C0E9B0024170098462B
:10A9400003E033880134A3422CDD7368A1009C46E8
:10A950000422614403A802F02AF90022290003A876
:10A96000FFF7D0FF002829D12B78BB42E9D14B4615
:10A97000002B2AD043461A88D3195B453EDC52444B
:10A98000290003A8FFF7BEFF002817D143462A7805
:10A990001B880134D318424613800123994633881B
:10A9A000A342D2DC4B464746002B25D03B88019A78
:10A9B000013B9B1A9BB20C20FF2B1AD905B03CBC63
:10A9C00090469946A246AB46F0BD43461B88DA192D
:10A9D00002325A4512DC4246013369469BB213806B
:10A9E00052460978D15443461A88013292B21A80ED
:10A9F000C5E71100524653540020DFE70C20DDE785
:10AA0000F0B55F4656464D4644460023F0B41788DD
:10AA10001380436B87B006000D001400002B00D19B
:10AA20009BE1022F00D890E11A7802230B701121CC
:10AA3000238801339BB22380E954238801339BB2DE
:10AA40002380EA54238801339BB22380326B002A8F
:10AA500000D170E019001231B94200D975E111211D
:10AA6000E9542388013901339BB22380E9542388B8
:10AA700001339BB22380D17BE954238801339BB2FD
:10AA80002380917BE954238801339BB22380517B3F
:10AA9000E954238801339BB22380117BE954238836
:10AAA00001339BB22380D17AE954238801339BB2CE
:10AAB0002380917AE954238801339BB22380517A11
:10AAC000E954238801339BB22380117AE954238807
:10AAD00001339BB22380D179E954238801339BB29F
:10AAE00023809179E954238801339BB223805179E3
:10AAF000E954238801339BB223801179E9542388D8
:10AB000001339BB22380D178E954238801339BB26F
:10AB100023809178E954238801339BB223805178B4
:10AB2000E954238801339BB223801278EA542388A6
:10AB300001339BB223802E22B25C002A00D00EE1AA
:10AB40002D22B25C002A00D02BE1B278002A00D07E
:10AB500054E1F278002A14D0D91CB94200D9F4E0AB
:10AB60000221E9542388013901339BB22380E9543F
:10AB7000238801339BB22380EA54238801339BB29C
:10AB800023807268002A14D0D91CB94200D9DCE0B5
:10AB900002211278E9542388083101339BB22380C3
:10ABA000E954238801339BB22380EA54238801337C
:10ABB00023803389002B00D09CE1338A002B00D006
:10ABC000B2E1338B002B00D0C8E1336A002B4BD0AD
:10ABD00022880C20911D9346B94200D9B6E019880D
:10ABE00005388A46052900D8B0E0BC496A468C463B
:10ABF000D4446146D181D1898C46B94988468C4577
:10AC000000D8A3E059888C46052900D89EE0B349B6
:10AC10006144D18189B2414500D897E0B1498A4564
:10AC200004D08C4502D0E24500D98FE005215A4678
:10AC3000A95422880D31013292B22280A95422886F
:10AC4000013292B222801988AA181170090A517033
:10AC50002288023292B222805988AB181970090AF0
:10AC60005970238802332380736A9846002B30D0B2
:10AC70009A882188131D5B180C20BB4266D8931C50
:10AC8000FE2B63D803326A54FF22238801339BB220
:10AC90002380EA544246238801339BB223801288E2
:10ACA000EB181A70120A5A704246238802339BB27C
:10ACB00023809288002A0CD04146896805380029F3
:10ACC00044D0E81801F073FF434622889B88D318CC
:10ACD00023802C23F35C002B00D0B0E033780020DD
:10ACE000002B33D032880720012A2FD02288901CD5
:10ACF000B8422AD8012B04D1737802339B189F42A3
:10AD000023D3023FBA1A04AF93B2281839009846E9
:10AD10003B80FFF7F5FD002818D13378022B00D1D6
:10AD200042E1012B00D1DFE043460821FE2B0CD885
:10AD300022885E1CAE542288013292B22280A9542D
:10AD4000228801329B18238000E00C2007B03CBC15
:10AD500090469946A246AB46F0BD002376E6D91C44
:10AD60000C20B942F2D80221E95423881030013373
:10AD70009BB22380E854238801339BB22380022AAC
:10AD800000D10CE100D805E1032A00D10AE1042A30
:10AD900000D0FDE00322EA54238801339BB22380D4
:10ADA000CEE609330C20BB42D0D804A8FFF7A2FDA1
:10ADB0000028CBD1082223880921EA5423881332A2
:10ADC00001339BB22380EA5402AB9C462088153A9B
:10ADD000013080B220806144281801F0E8FE238809
:10ADE00002AA0633127A9BB22380002A00D00122E5
:10ADF000EA54238801339BB22380A6E604330C2057
:10AE0000BB42A3D804A8FFF779FD00289ED10322F6
:10AE10002388EA542388163201339BB22380EA54F4
:10AE2000238802AA01339BB212892380EB181A707F
:10AE3000120A5A70238802339BB2238089E6B36AD0
:10AE40009846002B00D1A3E09B880233FE2B00D94B
:10AE50007BE70022914616329246163220889346AE
:10AE60000CE04B46B26A5B0090464B449B00984412
:10AE700043469B880233FE2B00D966E752460133D6
:10AE80002B54238801339BB22380EA544246238803
:10AE900001339BB223801288EB181A70120A5A7081
:10AEA00043462088023080B220809A88002A0BD046
:10AEB000996800296CD0281801F079FE4346208853
:10AEC0009B88C01880B220804B460133DBB2994684
:10AED0005B46F35C4B45C4D800E7C0467FF3FFFFF9
:10AEE0007DF30000FFFF00007378984500D31CE756
:10AEF00043461AE708239846B044019700942B0074
:10AF0000022202214046FFF7FFFC002800D01DE787
:10AF1000019700942B00102206214046FFF7F4FC15
:10AF2000002800D012E748E610239846B044019765
:10AF300000942B00022203214046FFF7E5FC002885
:10AF400000D003E7019700942B0010220721404610
:10AF5000FFF7DAFC002800D0F8E632E6182398461E
:10AF6000B044019700942B00022214214046FFF7C1
:10AF7000CBFC002800D0E9E6019700942B001022BA
:10AF800015214046FFF7C0FC002800D0DEE61CE695
:10AF90000720DBE6012AFBD10022EA54FCE601226D
:10AFA000EA54F9E6E954F7E63B880921984500D3CD
:10AFB000BCE64346B9E6C04630B593B01F236A46A7
:10AFC0000C009380D380002822D0C3785B071CD567
:10AFD00001AA02A9FFF714FD02AD002816D1002C2A
:10AFE00019D0E378002B10D16B460AA99A1D2000D6
:10AFF000FFF706FD002809D16B469B790AAA69462E
:10B0000028000979FFF778FC00E0072013B030BD75
:10B0100090800025E3E76B460022DC800023EEE70A
:10B0200073DF704770B59A4E86B00722002130005A
:10B03000FDF718F9974C6378002B25D0964D2B78A7
:10B04000012B45D0A278002A40D1022B50D10323F6
:10B050002B70237B002B00D001E104232B70237E77
:10B06000002B00D10FE18D4B1A68002A52D02378B3
:10B07000002B4FD08A4B1B78002B4BD10121894BE1
:10B0800007201970904748E0A378834D002B29D002
:10B090002B78022B1CD0012B2AD102232B70A378F2
:10B0A000002BD4D07378002B0ED1B378002B0BD1AA
:10B0B000F378002B08D13379002B05D17379002B5D
:10B0C00002D1B379002BC2D002231CE0022B0FD196
:10B0D000724A1268002A00D1D2E00121724B082086
:10B0E000197090472B78012B00D16DE0022BD6D040
:10B0F000227B002A01D1032BAFD0227E002A02D16D
:10B10000042B00D1BFE0654A1268002A02D0033B3D
:10B11000012BACD90022634B1A701822002168461B
:10B12000FDF7A0F800236A46137013722A78019382
:10B130000393022A65D02FD9032A00D16EE0042A96
:10B1400022D16B46A28B1A82228C5A82574B1A79D3
:10B15000002A00D185E02278002A00D185E0504AFB
:10B160001278002A00D080E069460393042302325B
:10B170004F480A720021C370FFF71EFF002821D13B
:10B1800006224C4B1A702A78002A0ED1434B1B68BA
:10B19000002B13D1002015E0012AF5D169464B821E
:10B1A0000B82444B01960A701A706846FFF738FF0D
:10B1B000002807D1394B1B68002BEBD03D4A107893
:10B1C0009847002006B070BD6278002A00D164E77D
:10B1D0007278002A00D096E7B278002A00D092E771
:10B1E000F278002A00D08EE73279002A00D08AE770
:10B1F0007279002A00D086E7B279002A00D14CE7A4
:10B2000081E7012369460B706B46218901965982BB
:10B21000694663680B82274B1A70C6E76B46A28AA1
:10B220005A82228A1A82214B1A79002A21D0227846
:10B23000002A21D01A4A1278002A1DD169460393A8
:10B24000042302321A480A720021C370FFF7B4FEC9
:10B250000028B7D10522174B1A702A7894E70323E8
:10B2600051E71A7B002A00D075E70422114B1A70AF
:10B270009BE71A7B002ADAD103220E4B1A7094E75F
:10B2800009490A702FE700230A4A2B70137041E71F
:10B290009C240020A42400203C25002070240020B1
:10B2A000972400201B2500203D250020EC240020B1
:10B2B0002C24002050250020F8B504000E000E209C
:10B2C000002C00D17BE0002A79D000203C49087096
:10B2D0003C490B6006993C4B19603C490B0023CA62
:10B2E00023C323CA23C323CA23C307220021384808
:10B2F000FCF7B8FF374B384A384D1A60384A0021FE
:10B300009A6028003822FCF7ADFF237822002B70CA
:10B31000A3781032AB70E378EB7063786B702B001E
:10B32000103303CA03C32B00103A083303CA03C304
:10B330002B000832183303CA03C3636A002B11D0F1
:10B34000284B294F6B62616A9F600A881A8088883F
:10B350009880002806D000238A68D25CFA54013312
:10B360008342F9D1A36A002B14D0204B204FAB624B
:10B37000A06A9F608188998002881A800023002932
:10B3800005D08268D25CFA5401338B42F9D12C2368
:10B39000E25CEA54236A002B06D0164B2B62226A29
:10B3A0005188598012881A806368002B03D0124B91
:10B3B0006B6063686B6031002800FFF7FDFDF8BD2E
:10B3C0003C2500207024002098240020A424002084
:10B3D0009C240020EC240020C82400202C240020E1
:10B3E0001C2500206424002078240020442500200F
:10B3F000FC24002040250020E824002010B5002473
:10B400000B4B82B0187001A80194FFF7E7F80828E9
:10B4100009D0002805D1019B002B05D00122054B46
:10B420001A7002B010BD0194FFF7FCFDF9E7C046A9
:10B430003C2500207424002030B5038883B0112BF4
:10B440001ED0192B07D0102B01D003B030BD82883D
:10B450002D4B1A80F9E78479002CF6D12B4B1D78FF
:10B46000022D4ED038D9032D23D0042DEDD1284BF9
:10B470001C70284B1B68002BE7D000209847E4E79E
:10B480000024254B1C70204B82881B889A42DCD1FB
:10B4900001251E4B01A81D700194FFF79FF8082895
:10B4A00024D0002827D1019B002B20D01B4B1D70DE
:10B4B000CBE7174A1570042201A81A700194FFF710
:10B4C0008DF8082812D0002815D1019B002B0ED032
:10B4D0000122124B1A70B8E7012DB6D1022201A841
:10B4E0001A700194FFF77AF80828DAD10194FFF76F
:10B4F00099FD0028A9D00A4B1B68002BA5D09847BE
:10B50000A3E70322D8E7C046662000203C250020A0
:10B51000502500207024002097240020742400204F
:10B520009824002030B5023883B0012803D8104C8D
:10B530002378002B01D103B030BD002501A8257070
:10B540000195FFF74BF8082807D000280AD1019B86
:10B55000002B03D001232370EDE70195FFF762FD77
:10B560000028E8D0034B1B68002BE4D09847E2E7A3
:10B57000742400209824002075DF704776DF704720
:10B580007ADF70477BDF704710B5184B82B01888A0
:10B59000174B984214D0174A174C13780133DBB27B
:10B5A0001370217B99420DD200231370237C002B52
:10B5B00012D16369002B03D0002201A802709847C2
:10B5C00002B010BD0D49FFF7D7FF0028F8D0A369DE
:10B5D000002BF5D09847F3E73B21FFF7CFFF00287A
:10B5E000E7D0A369002BE4D09847E2E79C25002030
:10B5F000FFFF00005C25002060250020A025002022
:10B6000030B51B4B1B4A5B88118883B099420FD819
:10B6100052889A420CD3184B5B69002B03D001224D
:10B6200001A802709847154C0023237003B030BD69
:10B63000124C2378002B08D00F4B5B69002BF3D002
:10B64000002201A802709847EEE70D4B0A4D1B78C7
:10B65000002B0BD0A96800220A48FDF7B1F9002899
:10B66000E2D0AB69002BDFD09847DDE76968F2E7ED
:10B6700054250020A0250020602500205125002011
:10B680005C2500207C250020164902000B0070B5C7
:10B6900032CA32C332CA32C312681A600022124B55
:10B6A00001681A70002916D0104C0832200001F0F1
:10B6B0007EFA2000FFF764FF00280BD101220C4B1B
:10B6C00052421A8000220B4B00211A700A480B4A82
:10B6D000FDF75CF970BD0548FFF754FF0028EDD079
:10B6E000F8E7C0466025002051250020A025002055
:10B6F0009C2500205C2500201CCC010089B50100A0
:10B7000010B50388112B35D021D9122B17D0502B0F
:10B710001CD1214CC288E3899A4217D1C38B022BDA
:10B7200014D11E33C35CDB070ED41C48FDF7CCF9E3
:10B7300000280BD0A369002B08D0984706E0811D94
:10B740000822174801F033FAFFF75AFF10BD102BFB
:10B75000FCD101008288134B16311A801048082250
:10B7600001F025FA0022104B1A700B4BDB89002BDD
:10B77000ECD1E9E701220B4B52421A8000220A4B1E
:10B7800006481A70FDF7A0F90028DFD0024B9B692C
:10B79000002BDBD09847D9E7602500207C250020CE
:10B7A000542500209C2500205C2500207FDF704769
:10B7B00082DF7047A7DF7047A9DF7047AADF7047B5
:10B7C000002070470020704700207047334AF8B5CA
:10B7D0004F46914646464946C0B443780700DA00D2
:10B7E000D218920089184C68002C0DD058002C4EAD
:10B7F000C11889007118897A4DB2002D1FDB002213
:10B8000000250024904605E00022002500249046F3
:10B81000234E5800C3189B00F318188922002B00F0
:10B820004146FFF7C9FF0B2813D0002805D1012D91
:10B830001AD00CBC90469946F8BD1A48F7E749065D
:10B84000DDD41100083188464946C844A4B28D5859
:10B85000E0E77B7841465A00D3189B00F31818891B
:10B8600022000123FFF7A8FF7B780C215A00D31890
:10B870009B00F61830890C4AFFF79CFF0028D8D0AF
:10B8800002220A4BC318934305D0082803D011287D
:10B8900001D00020CDE70348CBE7C046C0260020FA
:10B8A000CC25002041800000FFFF0000FECFFFFFFD
:10B8B000F0B589B01A236A4653804B782D4D5A0053
:10B8C000D3186A469B00EB1806000C001889023258
:10B8D000032301A9FFF772FF002802D0002009B05E
:10B8E000F0BD6B465A886378234FD800C3189B007D
:10B8F0000833F81801A901F04BF9002827D0637824
:10B90000D900CA189200BA185268002A30D11B4DCB
:10B910000322CB189B00FA506B465A886378D900F3
:10B92000CB189B00FB185A60637801A9D800C01897
:10B9300080000830381801F03AF963782422D900E1
:10B94000C9188900791838233000A847C6E76278FB
:10B9500053009B189B00ED18AB7A9B07BED4D00018
:10B9600080188000381824220021FCF77BFCB5E702
:10B97000034DCDE7CC250020C02600206DA301009B
:10B98000F9A3010070B506004B780C4CD800C31821
:10B990009B000D00E018242238233100FEF772FDD1
:10B9A000002807D16B78DA00D3189B00E3185A6897
:10B9B000013200D070BD5860FCE7C046C0260020B0
:10B9C000F0B557464E464546E0B44D4E1F0033682D
:10B9D00090B0804689469246002B46D0189B742B27
:10B9E00043D8484B6A46019300231374189B099768
:10B9F00008930024444D02E00134072C11D0A1B279
:10BA000002AA2800FEF786FC0028F5D1082202A928
:10BA1000404601F0BDF80028EED1E4B201ADAC70B3
:10BA200003E001ADAC78FF2C1FD04B46032B2DD08B
:10BA3000364BFB1AC32B1ED9354BFB1A1B2B30D8A8
:10BA400000236B700AAB09931823089308334A4606
:10BA5000022A4FD0022213436A46137407AB0593A0
:10BA60005246336804A92800984710B01CBC904681
:10BA70009946A246F0BD53462649002B0BD00B68D1
:10BA80000122A24093430B602023E0E7189B742B14
:10BA90002ED04323E0E70122A2400B681342E4D0FA
:10BAA000EEE71D483B1A232B0FD91C4B9F42F0D0C9
:10BAB0001B4BA200D3589F42D7D11A4BDA7A4023AE
:10BAC000A242C4D100226A70C1E730236A461374CF
:10BAD00000236B700133EB70124B9A7A302392077C
:10BAE000B5D424220021FCF7BDFB6B461B7CAEE7DE
:10BAF0002323B1E7012213436A461374AEE7C0461D
:10BB0000E826002000FFFFFF9C260020D82500200B
:10BB1000A4260020E4260020C026002058CD0100E5
:10BB2000A8250020CC250020002070470020704769
:10BB3000002070470020704770B506004B780C4C11
:10BB4000D800C3189B000D00E018242238233100D0
:10BB5000FEF798FC002807D16B78DA00D3189B0019
:10BB6000E3185A68013200D070BD5860FCE7C04647
:10BB7000C0260020334AF8B54F469146464649460E
:10BB8000C0B443780700DA00D218920089184C68D4
:10BB9000002C0DD058002C4EC11889007118897ADC
:10BBA0004DB2002D22DB002200250024904605E046
:10BBB0000022002500249046234E5800C3189B0005
:10BBC000F318188922002B004146FFF7F5FD0B28DA
:10BBD00016D0002803D0012D1DD01C4802E0012DF5
:10BBE00019D000200CBC90469946F8BD4906DAD41D
:10BBF0001100083188464946C844A4B28D58DDE793
:10BC00007B7841465A00D3189B00F318188922000C
:10BC10000123FFF7D1FD7B780C215A00D3189B003C
:10BC2000F61830890A4AFFF7C5FD0028D9D002224C
:10BC3000084BC3189343D0D00828CED01128D0D1B8
:10BC40000248CFE7C0260020CC250020418000001C
:10BC5000FFFF0000FECFFFFFF0B589B01A236A4650
:10BC600053804B782D4D5A00D3186A469B00EB1831
:10BC700006000C0018890232032301A9FFF79EFD7C
:10BC8000002802D0002009B0F0BD6B465A886378C6
:10BC9000234FD800C3189B000833F81801A900F0FF
:10BCA00077FF002827D06378D900CA189200BA1805
:10BCB0005268002A30D11B4D0322CB189B00FA504A
:10BCC0006B465A886378D900CB189B00FB185A60E2
:10BCD000637801A9D800C01880000830381800F037
:10BCE00066FF63782422D900C9188900791838239F
:10BCF0003000A847C6E7627853009B189B00ED18F8
:10BD0000AB7A9B07BED4D00080188000381824225C
:10BD10000021FCF7A7FAB5E7034DCDE7CC250020BD
:10BD2000C02600206DA30100F9A30100F0B55F4615
:10BD300056464D464446F0B487B00190002800D1E5
:10BD400070E00022404B01261A605A729A72012359
:10BD50003E4876428372073200210681C672FCF7A4
:10BD600081FA242200213A48FCF77CFA394B00255D
:10BD700099461C00384BFF279846384B9B46384B5A
:10BD80009A462000062200211130FCF76BFA10229F
:10BD900000212000FCF766FA01234246AB401268FE
:10BDA00059469A431300424613600022AB00CA5022
:10BDB00053465E5501352774A77626831C34072D1C
:10BDC000DFD1742302AA274E9380274B3100100045
:10BDD000D5800293FEF72CFA00281CD10123234FB3
:10BDE0003B70019B1B78002B1ED100254C46A9B24D
:10BDF00004AA3000FEF78EFA8046031E1ED11C22D4
:10BE000004A92000FEF73EFB00281AD101351C349E
:10BE1000072DECD1002007B03CBC90469946A246C5
:10BE2000AB46F0BD1248F6E702AB02AA9B88D18868
:10BE30003000594389B2FEF77FFBECE700233B70EB
:10BE4000E9E744463C70E6E7E8260020CC250020E0
:10BE5000C0260020D8250020E4260020A8250020A8
:10BE6000C42500209C260020C1B90100CB2500205C
:10BE70000E800000F8B5194B05001B780C00002B54
:10BE800001D11748F8BD00280AD0002908D00B6856
:10BE9000002B05D0134E3768002F03D01248F1E76E
:10BEA0001248EFE73000053108C0052200F07FFEA0
:10BEB000012223790421B372337AF0799343022269
:10BEC0001343DBB28B43337201230343DBB21A43C8
:10BED000D2B28A43F27100202F70D3E7CB25002025
:10BEE00008800000E8260020048000000E8000008A
:10BEF000F0B54D465F4656464446FF22F0B4B44B7B
:10BF00008FB01B7805000392002B41D0B14B9846AF
:10BF10001B68002B3CD004AC05AE6270A270E270CE
:10BF2000021D72602A220021328102882170102AAB
:10BF300000D165E18188FF20A74F8B46B97A824600
:10BF4000880705D5A548834529D03889584526D086
:10BF5000113A92B2412A1BD8A148920082589746C2
:10BF600013223270002293465A463100200098472F
:10BF70003378122B0CD1BB7A012B09D00123BB7271
:10BF8000023B3B81FB72072200213800FCF76AF973
:10BF90000FB03CBC90469946A246AB46F0BDF87A3D
:10BFA0008246A07000206070D2E742460120527A9B
:10BFB0008146824340464272042014228143B97272
:10BFC0003270AA79002A00D09BE1EA7994460022D7
:10BFD000934662461042C7D05246FF2AC4D0082278
:10BFE0001143EA7AB97292070AD552465146484639
:10BFF000D200521A7B4992008A18917E8143917631
:10C00000FA7AFF2AAED03B78022B00D19FE2754B23
:10C01000524699465346DB009B1A39689B004B44B5
:10C020001961B9889A7E9982B979997502218A43F2
:10C030009A766A46534608AD138011886A482A00EA
:10C04000FEF768F9002833D163785A00D3189B00B3
:10C05000FB189B7A5B0600D476E2644B9A46A17883
:10C060001C22CB00591A8900494400232800D047DC
:10C07000002811D1617840304B005B189B00FB1801
:10C080009A7A82439A72CB00591A8B0058491C2223
:10C09000C91828001C23D047237821005A00D31840
:10C0A0009B0043449B7A534A9B009B582800984727
:10C0B000434600221B68934656E7AB79112B02D109
:10C0C0000B0700D598E180235B4219439533337009
:10C0D0004346B9729B7A484A9B009B582000984778
:10C0E000434600221B6893463EE743469B7A424AFA
:10C0F0009B009B58200098474AE702220800082529
:10C100009043B8720D4000D1CDE042B2002A00DA6F
:10C11000DCE11022BA72023232700022934623E729
:10C120001323337004231943B972F97AFF2900D01D
:10C13000A7E02C4B99469B7EFF2B00D149E236238A
:10C140004A46D35CFF2B00D145E25223D35CFF2B40
:10C1500000D142E26E23D35CFF2B00D141E28A235F
:10C16000D35CFF2B00D13AE2A623D35CFF2B00D196
:10C1700055E1C223D35C0622FF2B00D150E11F4BB7
:10C180009B46CB00591A1A4B00220893434689005C
:10C1900049440B920C910D9209920A92A8881A1D9B
:10C1A000002108ABFFF702FB002800D0F0E6434671
:10C1B0001B68D9E6FB7AFF2B00D1B3E0094B0C4E8C
:10C1C000994600234A4631005846FFF7F1FADFE668
:10C1D000CB250020E8260020CC250020FFFF000012
:10C1E00020CC0100D82500209C260020F9A30100C6
:10C1F000A426002028CD010048CD01004380000086
:10C200000122DE4F9246BB7A1A4200D1C0E60223D9
:10C21000BB720F3361703370838807223B81831DAB
:10C2200019003800994600F0C2FC52462B7D1A4294
:10C2300000D1C8E0D24A5B08D35CFF2B00D142E1B9
:10C240000A22039399B2BA72FB7208AACD48A3706E
:10C25000FEF760F8002800D02AE7607808A9C3003C
:10C26000181A8300C8481C22C0181C23FEF70AF9BC
:10C2700043469B7AC54A9B009B58210008A89847D3
:10C2800016E71623C2481A22002108303370FBF744
:10C29000E9FF4023BA7AF97A1343BB7200239B4625
:10C2A000BC4B99466DE75246FF2A00D131E7B94BA6
:10C2B00000219B46D3009B1A9B0099465846484450
:10C2C0000622D9441130FBF7CDFF10220021484649
:10C2D000FBF7C8FFFF234A461374937601224B46AF
:10C2E000524250461A8301238340AB49A27008682A
:10C2F0009843534608609900A84BCD5043461B68AD
:10C3000007E76A46FB7A9F481380118808AA9A4675
:10C31000FEF700F8002800D1A2E0AB799B46434627
:10C320001B6821E69B4AEB899146128B9A4200D109
:10C330005BE14A46928E9A4200D154E1502248462F
:10C34000825A9A4200D158E16C22825A9A4200D114
:10C3500051E18822825A9A4200D14AE1A422825AAB
:10C360009A4200D143E1C022825A00269A4200D06C
:10C3700027E706230822D8B21143F872B972A070D9
:10C3800099B208AA7F480393FDF7C4FF002812D191
:10C3900060781C22C300181A83007B4808A9C018C3
:10C3A0001C23FEF76FF843469B7A784A9B009B5804
:10C3B000210008A89847FB7AFF2B00D01FE1AB882B
:10C3C00000269B46FDE600239A463B0057469A46C8
:10C3D000704D103507224946280000F0D9FB00288F
:10C3E00000D1E5E001371C35072FF3D14346002289
:10C3F00057461B689346B7E565481A220021083066
:10C40000FBF730FF162333706023BA7A1343BB72F5
:10C4100043465A7A022313434246537248E60522A2
:10C420003B78022B00D1A2E0D300991A890049443D
:10C43000080010308446386808616046B9888180F9
:10C44000B9798171FD219B1A9B004B44997603AB0E
:10C450001A70039BD9B20023A170F9729B4690E633
:10C46000742108A8FEF768F80090002800D054E76F
:10C47000484B52469B465346DB009B1A9B001800D4
:10C4800058440622002111300193FBF7EBFE019B7B
:10C4900010229C46E34400215846FBF7E3FE5A462F
:10C4A000FF2313749376013BFF3B138351464B46A6
:10C4B0008B40394A1168994353461160374A0099B5
:10C4C0009B00995029E7FF210A22BCE66A465346A1
:10C4D00008AD138011882B482A00FDF71BFF0028A8
:10C4E00000D00BE763785A00D3189B00FB189B7AA7
:10C4F0005B063FD52A4B9946A1781C22CB00591ADE
:10C500008B0024492800C9180023C84700280ED1F1
:10C510000C22637840305A43BA18917A8143917261
:10C520001C22534318492800C9181300C847237810
:10C5300021005A00D3189B0043449B7A194A9B0060
:10C540009B5828009847D9E6174B9A4687E5114B28
:10C550005246994653460121DB009B1A0A4A9B002A
:10C56000528A4B441A839A7E8A439A7661E5FE2169
:10C57000D30068E70D4B9946BEE7C046CC250020A6
:10C58000C42500209C260020A426002038CD0100D0
:10C59000C0260020D8250020E4260020A825002061
:10C5A000F9A3010028CD01006DA30100C1B701006E
:10C5B0005346BA461F0053466A46039353461370C8
:10C5C00013780822B97A68460A43514601800188E7
:10C5D00039E6002224E7012222E7022220E7042292
:10C5E0001EE703221CE70123C4E60023C2E605235D
:10C5F000C0E60423BEE60323BCE60223BAE6AB880A
:10C60000014E9B46DDE5C046A42600201D4B1B784D
:10C61000012B00D070471C4B1B681B07FAD1F0227E
:10C620001A4B1B68134018D1194B1B6813421CD0BE
:10C63000154B1B681B07EDD1F022144B1B681340F0
:10C64000402BE7D1124B1B681342E3D1C123802258
:10C650000121DB00D205D150DCE7102B01D0302BBB
:10C66000EAD10B4B1B681342E6D10A4A0A4B1A6007
:10C6700080220A4B12021A60024B1B78012BD7D082
:10C68000C8E7C046E00F00F0E40F00F0E80F00F04C
:10C69000EC0F00F0DFFF07C004050040186C0040FD
:10C6A0002EDF704751DF704710DF704761DF704742
:10C6B00010B508001100FEF705F810BDF0B557469B
:10C6C0004E464546E0B4344B344E1D6899466B42A5
:10C6D0005D41334BEDB21C68984663425C4182B0C9
:10C6E000E4B2304FB246002D13D0002C40D13C684C
:10C6F000338801A920000B80FFF7D8FF052837D029
:10C7000000282AD000220021FBF7B6FD0024002DCE
:10C71000EBD101A8FFF7C6FF05280DD0002822D0D5
:10C7200000220021FBF7A8FD002C27D0012401A83E
:10C73000FFF7B8FF0528F1D1002C19D153466A46FE
:10C740001B8801A99380174B1C682000FFF7AEFFE0
:10C7500005280DD001250028D4D1434620001B68B0
:10C7600098470024D3E74B4601981B689847DBE7BE
:10C7700002B01CBC90469946A246F0BD6A46074BE3
:10C7800001A91B889380074B1C682000FFF78EFFD0
:10C790000528B5D10124CAE7FC260020F626002092
:10C7A00000270020F826002070B50400072000298B
:10C7B00001D08D0700D070BD0948016009492000F3
:10C7C0000A80094A09491360FFF76EFF0028F2D179
:10C7D0000122074B16301A70FFF762FFEBE7C046E5
:10C7E000F8260020F626002004270020B1C601000C
:10C7F000F4260020002803D0024B18600020704768
:10C800000E20FCE700270020002803D0024B186010
:10C81000002070470E20FCE7FC26002010B50A4BD4
:10C820001B68002B08D09847002800D110BD0022BB
:10C830000021FBF721FDF9E7044B1B78002BF5D015
:10C84000FFF73CFFF2E7C04604270020F426002053
:10C8500003210A4802680A430260094802680A4341
:10C8600002600849084A094B9B1A03DD043BC8587B
:10C87000D050FBDC064880470648004724050040AE
:10C880005405004064CD01000020002070200020ED
:10C890000DC6010075810100FEE7FEE7FEE7FEE739
:10C8A000FEE7FEE7002243088B4274D303098B4264
:10C8B0005FD3030A8B4244D3030B8B4228D3030C70
:10C8C0008B420DD3FF22090212BA030C8B4202D312
:10C8D0001212090265D0030B8B4219D300E0090A3A
:10C8E000C30B8B4201D3CB03C01A5241830B8B4243
:10C8F00001D38B03C01A5241430B8B4201D34B032C
:10C90000C01A5241030B8B4201D30B03C01A524190
:10C91000C30A8B4201D3CB02C01A5241830A8B4215
:10C9200001D38B02C01A5241430A8B4201D34B02FE
:10C93000C01A5241030A8B4201D30B02C01A524162
:10C94000CDD2C3098B4201D3CB01C01A5241830916
:10C950008B4201D38B01C01A524143098B4201D350
:10C960004B01C01A524103098B4201D30B01C01A7B
:10C970005241C3088B4201D3CB00C01A52418308F5
:10C980008B4201D38B00C01A524143088B4201D322
:10C990004B00C01A5241411A00D201465241104682
:10C9A0007047FFE701B5002000F0F0F802BDC04677
:10C9B0000029F7D076E7704703460B437FD4002267
:10C9C00043088B4274D303098B425FD3030A8B4223
:10C9D00044D3030B8B4228D3030C8B420DD3FF228D
:10C9E000090212BA030C8B4202D31212090265D05B
:10C9F000030B8B4219D300E0090AC30B8B4201D30E
:10CA0000CB03C01A5241830B8B4201D38B03C01A54
:10CA10005241430B8B4201D34B03C01A5241030BCB
:10CA20008B4201D30B03C01A5241C30A8B4201D37C
:10CA3000CB02C01A5241830A8B4201D38B02C01A27
:10CA40005241430A8B4201D34B02C01A5241030A9E
:10CA50008B4201D30B02C01A5241CDD2C3098B4283
:10CA600001D3CB01C01A524183098B4201D38B0100
:10CA7000C01A524143098B4201D34B01C01A5241A3
:10CA800003098B4201D30B01C01A5241C3088B42E8
:10CA900001D3CB00C01A524183088B4201D38B00D3
:10CAA000C01A524143088B4201D34B00C01A524175
:10CAB000411A00D201465241104670475DE0CA0F4C
:10CAC00000D04942031000D34042534000229C460C
:10CAD00003098B422DD3030A8B4212D3FC22890116
:10CAE00012BA030A8B420CD3890192118B4208D3EC
:10CAF000890192118B4204D389013AD0921100E04E
:10CB00008909C3098B4201D3CB01C01A5241830961
:10CB10008B4201D38B01C01A524143098B4201D38E
:10CB20004B01C01A524103098B4201D30B01C01AB9
:10CB30005241C3088B4201D3CB00C01A5241830833
:10CB40008B4201D38B00C01A5241D9D243088B4289
:10CB500001D34B00C01A5241411A00D2014663462C
:10CB600052415B10104601D34042002B00D5494290
:10CB7000704763465B1000D3404201B5002000F0CF
:10CB800005F802BD0029F8D016E770477047C04687
:10CB900030B50024A24208D0035D651C0C5DA342A1
:10CBA00001D0181B02E02C00F4E7002030BD002368
:10CBB00010B59A4203D0CC5CC4540133F9E710BDE0
:10CBC0000023C25C0133002AFBD1581E70470000CD
:10CBD000F8B5C046F8BC08BC9E467047F8B5C046DC
:10CBE000F8BC08BC9E4670474300000000200020AF
:10CBF000F9970100B1960100CD9B0100D59301008A
:10CC0000D1980100559701003D950100C59D010097
:10CC1000ED95010089940100763000007C2500200C
:10CC2000FAC0010090BF010020C10100B4C10100A1
:10CC300090BF010090BF0100AABF0100BAC001006F
:10CC400090BF010090BF010090BF010060BF0100D4
:10CC500090BF010090BF010090BF010090BF010094
:10CC600090BF010090BF010090BF010090BF010084
:10CC700090BF010090BF010090BF010090BF010074
:10CC800090BF010090BF010090BF010090BF010064
:10CC900090BF010090BF010090BF010090BF010054
:10CCA00090BF010090BF010090BF010090BF010044
:10CCB00090BF010090BF010090BF010090BF010034
:10CCC00090BF010090BF010090BF010090BF010024
:10CCD00090BF010090BF010090BF010090BF010014
:10CCE00090BF010090BF010090BF010090BF010004
:10CCF00090BF010090BF010090BF010090BF0100F4
:10CD000090BF010090BF010090BF010090BF0100E3
:10CD100090BF010090BF010090BF010090BF0100D3
:10CD200090BF0100EAC001002DBB0100B1B80100B5
:10CD300031BB010059BC010029BB010085B90100CC
:10CD4000C5B7010039BB010035BB0100CDB70100FB
:0CCD5000C9B7010075BB0100FFFFFFFF29
:08CD5C0018B4FF7F0100000084
:10CD640000000000000000000000000000000000BF
:10CD740000000000000000000000000000000000AF
:10CD8400E8CB0100000000000000000000000000EB
:10CD9400000000000000000000000000000000008F
:10CDA400000000000000000000000000000000007F
:10CDB400000000000000000000000000000000006F
:10CDC4000A180100FFFFFFFF398101000D810100F6
:040000031000C851D0
:00000001FF
